{
  "address": "0xC84a82C00193Eb8C996b7462951af0035935290B",
  "abi": [
    {
      "inputs": [],
      "stateMutability": "nonpayable",
      "type": "constructor"
    },
    {
      "anonymous": false,
      "inputs": [
        {
          "indexed": true,
          "internalType": "address",
          "name": "account",
          "type": "address"
        },
        {
          "indexed": true,
          "internalType": "address",
          "name": "operator",
          "type": "address"
        },
        {
          "indexed": false,
          "internalType": "bool",
          "name": "approved",
          "type": "bool"
        }
      ],
      "name": "ApprovalForAll",
      "type": "event"
    },
    {
      "anonymous": false,
      "inputs": [
        {
          "indexed": true,
          "internalType": "address",
          "name": "previousOwner",
          "type": "address"
        },
        {
          "indexed": true,
          "internalType": "address",
          "name": "newOwner",
          "type": "address"
        }
      ],
      "name": "OwnershipTransferred",
      "type": "event"
    },
    {
      "anonymous": false,
      "inputs": [
        {
          "indexed": true,
          "internalType": "address",
          "name": "operator",
          "type": "address"
        },
        {
          "indexed": true,
          "internalType": "address",
          "name": "from",
          "type": "address"
        },
        {
          "indexed": true,
          "internalType": "address",
          "name": "to",
          "type": "address"
        },
        {
          "indexed": false,
          "internalType": "uint256[]",
          "name": "ids",
          "type": "uint256[]"
        },
        {
          "indexed": false,
          "internalType": "uint256[]",
          "name": "values",
          "type": "uint256[]"
        }
      ],
      "name": "TransferBatch",
      "type": "event"
    },
    {
      "anonymous": false,
      "inputs": [
        {
          "indexed": true,
          "internalType": "address",
          "name": "operator",
          "type": "address"
        },
        {
          "indexed": true,
          "internalType": "address",
          "name": "from",
          "type": "address"
        },
        {
          "indexed": true,
          "internalType": "address",
          "name": "to",
          "type": "address"
        },
        {
          "indexed": false,
          "internalType": "uint256",
          "name": "id",
          "type": "uint256"
        },
        {
          "indexed": false,
          "internalType": "uint256",
          "name": "value",
          "type": "uint256"
        }
      ],
      "name": "TransferSingle",
      "type": "event"
    },
    {
      "anonymous": false,
      "inputs": [
        {
          "indexed": false,
          "internalType": "string",
          "name": "value",
          "type": "string"
        },
        {
          "indexed": true,
          "internalType": "uint256",
          "name": "id",
          "type": "uint256"
        }
      ],
      "name": "URI",
      "type": "event"
    },
    {
      "inputs": [
        {
          "internalType": "address",
          "name": "account",
          "type": "address"
        },
        {
          "internalType": "uint256",
          "name": "id",
          "type": "uint256"
        }
      ],
      "name": "balanceOf",
      "outputs": [
        {
          "internalType": "uint256",
          "name": "",
          "type": "uint256"
        }
      ],
      "stateMutability": "view",
      "type": "function"
    },
    {
      "inputs": [
        {
          "internalType": "address[]",
          "name": "accounts",
          "type": "address[]"
        },
        {
          "internalType": "uint256[]",
          "name": "ids",
          "type": "uint256[]"
        }
      ],
      "name": "balanceOfBatch",
      "outputs": [
        {
          "internalType": "uint256[]",
          "name": "",
          "type": "uint256[]"
        }
      ],
      "stateMutability": "view",
      "type": "function"
    },
    {
      "inputs": [
        {
          "internalType": "address",
          "name": "account",
          "type": "address"
        },
        {
          "internalType": "uint256",
          "name": "quantity",
          "type": "uint256"
        }
      ],
      "name": "burn",
      "outputs": [],
      "stateMutability": "nonpayable",
      "type": "function"
    },
    {
      "inputs": [
        {
          "internalType": "address",
          "name": "account",
          "type": "address"
        },
        {
          "internalType": "address",
          "name": "operator",
          "type": "address"
        }
      ],
      "name": "isApprovedForAll",
      "outputs": [
        {
          "internalType": "bool",
          "name": "",
          "type": "bool"
        }
      ],
      "stateMutability": "view",
      "type": "function"
    },
    {
      "inputs": [],
      "name": "name",
      "outputs": [
        {
          "internalType": "string",
          "name": "",
          "type": "string"
        }
      ],
      "stateMutability": "view",
      "type": "function"
    },
    {
      "inputs": [],
      "name": "owner",
      "outputs": [
        {
          "internalType": "address",
          "name": "",
          "type": "address"
        }
      ],
      "stateMutability": "view",
      "type": "function"
    },
    {
      "inputs": [],
      "name": "renounceOwnership",
      "outputs": [],
      "stateMutability": "nonpayable",
      "type": "function"
    },
    {
      "inputs": [
        {
          "internalType": "address",
          "name": "from",
          "type": "address"
        },
        {
          "internalType": "address",
          "name": "to",
          "type": "address"
        },
        {
          "internalType": "uint256[]",
          "name": "ids",
          "type": "uint256[]"
        },
        {
          "internalType": "uint256[]",
          "name": "amounts",
          "type": "uint256[]"
        },
        {
          "internalType": "bytes",
          "name": "data",
          "type": "bytes"
        }
      ],
      "name": "safeBatchTransferFrom",
      "outputs": [],
      "stateMutability": "nonpayable",
      "type": "function"
    },
    {
      "inputs": [
        {
          "internalType": "address",
          "name": "from",
          "type": "address"
        },
        {
          "internalType": "address",
          "name": "to",
          "type": "address"
        },
        {
          "internalType": "uint256",
          "name": "id",
          "type": "uint256"
        },
        {
          "internalType": "uint256",
          "name": "amount",
          "type": "uint256"
        },
        {
          "internalType": "bytes",
          "name": "data",
          "type": "bytes"
        }
      ],
      "name": "safeTransferFrom",
      "outputs": [],
      "stateMutability": "nonpayable",
      "type": "function"
    },
    {
      "inputs": [
        {
          "internalType": "address",
          "name": "operator",
          "type": "address"
        },
        {
          "internalType": "bool",
          "name": "approved",
          "type": "bool"
        }
      ],
      "name": "setApprovalForAll",
      "outputs": [],
      "stateMutability": "nonpayable",
      "type": "function"
    },
    {
      "inputs": [
        {
          "internalType": "bytes4",
          "name": "interfaceId",
          "type": "bytes4"
        }
      ],
      "name": "supportsInterface",
      "outputs": [
        {
          "internalType": "bool",
          "name": "",
          "type": "bool"
        }
      ],
      "stateMutability": "view",
      "type": "function"
    },
    {
      "inputs": [],
      "name": "symbol",
      "outputs": [
        {
          "internalType": "string",
          "name": "",
          "type": "string"
        }
      ],
      "stateMutability": "view",
      "type": "function"
    },
    {
      "inputs": [
        {
          "internalType": "address",
          "name": "newOwner",
          "type": "address"
        }
      ],
      "name": "transferOwnership",
      "outputs": [],
      "stateMutability": "nonpayable",
      "type": "function"
    },
    {
      "inputs": [
        {
          "internalType": "uint256",
          "name": "",
          "type": "uint256"
        }
      ],
      "name": "uri",
      "outputs": [
        {
          "internalType": "string",
          "name": "",
          "type": "string"
        }
      ],
      "stateMutability": "view",
      "type": "function"
    }
  ],
  "transactionHash": "0x229714525395737fd7fb7d7e42edbd46d1d0bae40eab5cd64779b45a313f6cb4",
  "args": [],
  "numDeployments": 2,
  "solcInputHash": "1e71ef7c355544e1c7059d5a602db43e",
  "bytecode": "0x6080604052736b5c9289b62415435cede32813b1c6ef0e08a903600460006101000a81548173ffffffffffffffffffffffffffffffffffffffff021916908373ffffffffffffffffffffffffffffffffffffffff160217905550600460009054906101000a900473ffffffffffffffffffffffffffffffffffffffff16600560006101000a81548173ffffffffffffffffffffffffffffffffffffffff021916908373ffffffffffffffffffffffffffffffffffffffff1602179055506040518060400160405280600281526020017f42420000000000000000000000000000000000000000000000000000000000008152506006908051906020019062000109929190620002a0565b506040518060400160405280600281526020017f42420000000000000000000000000000000000000000000000000000000000008152506007908051906020019062000157929190620002a0565b503480156200016557600080fd5b50604051806080016040528060508152602001620032de60509139620001a062000194620001b860201b60201c565b620001c060201b60201c565b620001b1816200028460201b60201c565b50620003b5565b600033905090565b60008060009054906101000a900473ffffffffffffffffffffffffffffffffffffffff169050816000806101000a81548173ffffffffffffffffffffffffffffffffffffffff021916908373ffffffffffffffffffffffffffffffffffffffff1602179055508173ffffffffffffffffffffffffffffffffffffffff168173ffffffffffffffffffffffffffffffffffffffff167f8be0079c531659141344cd1fd0a4f28419497f9722a3daafe3b4186f6b6457e060405160405180910390a35050565b80600390805190602001906200029c929190620002a0565b5050565b828054620002ae9062000350565b90600052602060002090601f016020900481019282620002d257600085556200031e565b82601f10620002ed57805160ff19168380011785556200031e565b828001600101855582156200031e579182015b828111156200031d57825182559160200191906001019062000300565b5b5090506200032d919062000331565b5090565b5b808211156200034c57600081600090555060010162000332565b5090565b600060028204905060018216806200036957607f821691505b6020821081141562000380576200037f62000386565b5b50919050565b7f4e487b7100000000000000000000000000000000000000000000000000000000600052602260045260246000fd5b612f1980620003c56000396000f3fe608060405234801561001057600080fd5b50600436106100e95760003560e01c80638da5cb5b1161008c578063a22cb46511610066578063a22cb4651461024a578063e985e9c514610266578063f242432a14610296578063f2fde38b146102b2576100e9565b80638da5cb5b146101f257806395d89b41146102105780639dc29fac1461022e576100e9565b80630e89341c116100c85780630e89341c1461016c5780632eb2c2d61461019c5780634e1273f4146101b8578063715018a6146101e8576100e9565b8062fdd58e146100ee57806301ffc9a71461011e57806306fdde031461014e575b600080fd5b61010860048036038101906101039190611ee2565b6102ce565b604051610115919061262c565b60405180910390f35b61013860048036038101906101339190611f8a565b610398565b604051610145919061244f565b60405180910390f35b61015661047a565b604051610163919061246a565b60405180910390f35b61018660048036038101906101819190611fdc565b61050c565b604051610193919061246a565b60405180910390f35b6101b660048036038101906101b19190611d58565b6105a0565b005b6101d260048036038101906101cd9190611f1e565b610641565b6040516101df91906123f6565b60405180910390f35b6101f06107f2565b005b6101fa61087a565b60405161020791906122f0565b60405180910390f35b6102186108a3565b604051610225919061246a565b60405180910390f35b61024860048036038101906102439190611ee2565b610935565b005b610264600480360381019061025f9190611ea6565b6109e4565b005b610280600480360381019061027b9190611d1c565b610b65565b60405161028d919061244f565b60405180910390f35b6102b060048036038101906102ab9190611e17565b610bf9565b005b6102cc60048036038101906102c79190611cf3565b610c9a565b005b60008073ffffffffffffffffffffffffffffffffffffffff168373ffffffffffffffffffffffffffffffffffffffff16141561033f576040517f08c379a0000000000000000000000000000000000000000000000000000000008152600401610336906124cc565b60405180910390fd5b6001600083815260200190815260200160002060008473ffffffffffffffffffffffffffffffffffffffff1673ffffffffffffffffffffffffffffffffffffffff16815260200190815260200160002054905092915050565b60007fd9b67a26000000000000000000000000000000000000000000000000000000007bffffffffffffffffffffffffffffffffffffffffffffffffffffffff1916827bffffffffffffffffffffffffffffffffffffffffffffffffffffffff1916148061046357507f0e89341c000000000000000000000000000000000000000000000000000000007bffffffffffffffffffffffffffffffffffffffffffffffffffffffff1916827bffffffffffffffffffffffffffffffffffffffffffffffffffffffff1916145b80610473575061047282610d92565b5b9050919050565b6060600680546104899061289b565b80601f01602080910402602001604051908101604052809291908181526020018280546104b59061289b565b80156105025780601f106104d757610100808354040283529160200191610502565b820191906000526020600020905b8154815290600101906020018083116104e557829003601f168201915b5050505050905090565b60606003805461051b9061289b565b80601f01602080910402602001604051908101604052809291908181526020018280546105479061289b565b80156105945780601f1061056957610100808354040283529160200191610594565b820191906000526020600020905b81548152906001019060200180831161057757829003601f168201915b50505050509050919050565b6105a8610dfc565b73ffffffffffffffffffffffffffffffffffffffff168573ffffffffffffffffffffffffffffffffffffffff1614806105ee57506105ed856105e8610dfc565b610b65565b5b61062d576040517f08c379a00000000000000000000000000000000000000000000000000000000081526004016106249061254c565b60405180910390fd5b61063a8585858585610e04565b5050505050565b60608151835114610687576040517f08c379a000000000000000000000000000000000000000000000000000000000815260040161067e906125cc565b60405180910390fd5b6000835167ffffffffffffffff8111156106ca577f4e487b7100000000000000000000000000000000000000000000000000000000600052604160045260246000fd5b6040519080825280602002602001820160405280156106f85781602001602082028036833780820191505090505b50905060005b84518110156107e757610791858281518110610743577f4e487b7100000000000000000000000000000000000000000000000000000000600052603260045260246000fd5b6020026020010151858381518110610784577f4e487b7100000000000000000000000000000000000000000000000000000000600052603260045260246000fd5b60200260200101516102ce565b8282815181106107ca577f4e487b7100000000000000000000000000000000000000000000000000000000600052603260045260246000fd5b602002602001018181525050806107e0906128fe565b90506106fe565b508091505092915050565b6107fa610dfc565b73ffffffffffffffffffffffffffffffffffffffff1661081861087a565b73ffffffffffffffffffffffffffffffffffffffff161461086e576040517f08c379a00000000000000000000000000000000000000000000000000000000081526004016108659061258c565b60405180910390fd5b6108786000611167565b565b60008060009054906101000a900473ffffffffffffffffffffffffffffffffffffffff16905090565b6060600780546108b29061289b565b80601f01602080910402602001604051908101604052809291908181526020018280546108de9061289b565b801561092b5780601f106109005761010080835404028352916020019161092b565b820191906000526020600020905b81548152906001019060200180831161090e57829003601f168201915b5050505050905090565b600560009054906101000a900473ffffffffffffffffffffffffffffffffffffffff1673ffffffffffffffffffffffffffffffffffffffff16639dc29fac83836040518363ffffffff1660e01b81526004016109929291906123cd565b600060405180830381600087803b1580156109ac57600080fd5b505af11580156109c0573d6000803e3d6000fd5b505050506109e0826001836040518060200160405280600081525061122b565b5050565b8173ffffffffffffffffffffffffffffffffffffffff16610a03610dfc565b73ffffffffffffffffffffffffffffffffffffffff161415610a5a576040517f08c379a0000000000000000000000000000000000000000000000000000000008152600401610a51906125ac565b60405180910390fd5b8060026000610a67610dfc565b73ffffffffffffffffffffffffffffffffffffffff1673ffffffffffffffffffffffffffffffffffffffff16815260200190815260200160002060008473ffffffffffffffffffffffffffffffffffffffff1673ffffffffffffffffffffffffffffffffffffffff16815260200190815260200160002060006101000a81548160ff0219169083151502179055508173ffffffffffffffffffffffffffffffffffffffff16610b14610dfc565b73ffffffffffffffffffffffffffffffffffffffff167f17307eab39ab6107e8899845ad3d59bd9653f200f220920489ca2b5937696c3183604051610b59919061244f565b60405180910390a35050565b6000600260008473ffffffffffffffffffffffffffffffffffffffff1673ffffffffffffffffffffffffffffffffffffffff16815260200190815260200160002060008373ffffffffffffffffffffffffffffffffffffffff1673ffffffffffffffffffffffffffffffffffffffff16815260200190815260200160002060009054906101000a900460ff16905092915050565b610c01610dfc565b73ffffffffffffffffffffffffffffffffffffffff168573ffffffffffffffffffffffffffffffffffffffff161480610c475750610c4685610c41610dfc565b610b65565b5b610c86576040517f08c379a0000000000000000000000000000000000000000000000000000000008152600401610c7d9061250c565b60405180910390fd5b610c9385858585856113c2565b5050505050565b610ca2610dfc565b73ffffffffffffffffffffffffffffffffffffffff16610cc061087a565b73ffffffffffffffffffffffffffffffffffffffff1614610d16576040517f08c379a0000000000000000000000000000000000000000000000000000000008152600401610d0d9061258c565b60405180910390fd5b600073ffffffffffffffffffffffffffffffffffffffff168173ffffffffffffffffffffffffffffffffffffffff161415610d86576040517f08c379a0000000000000000000000000000000000000000000000000000000008152600401610d7d906124ec565b60405180910390fd5b610d8f81611167565b50565b60007f01ffc9a7000000000000000000000000000000000000000000000000000000007bffffffffffffffffffffffffffffffffffffffffffffffffffffffff1916827bffffffffffffffffffffffffffffffffffffffffffffffffffffffff1916149050919050565b600033905090565b8151835114610e48576040517f08c379a0000000000000000000000000000000000000000000000000000000008152600401610e3f906125ec565b60405180910390fd5b600073ffffffffffffffffffffffffffffffffffffffff168473ffffffffffffffffffffffffffffffffffffffff161415610eb8576040517f08c379a0000000000000000000000000000000000000000000000000000000008152600401610eaf9061252c565b60405180910390fd5b6000610ec2610dfc565b9050610ed2818787878787611647565b60005b84518110156110d2576000858281518110610f19577f4e487b7100000000000000000000000000000000000000000000000000000000600052603260045260246000fd5b602002602001015190506000858381518110610f5e577f4e487b7100000000000000000000000000000000000000000000000000000000600052603260045260246000fd5b6020026020010151905060006001600084815260200190815260200160002060008b73ffffffffffffffffffffffffffffffffffffffff1673ffffffffffffffffffffffffffffffffffffffff16815260200190815260200160002054905081811015611000576040517f08c379a0000000000000000000000000000000000000000000000000000000008152600401610ff79061256c565b60405180910390fd5b8181036001600085815260200190815260200160002060008c73ffffffffffffffffffffffffffffffffffffffff1673ffffffffffffffffffffffffffffffffffffffff16815260200190815260200160002081905550816001600085815260200190815260200160002060008b73ffffffffffffffffffffffffffffffffffffffff1673ffffffffffffffffffffffffffffffffffffffff16815260200190815260200160002060008282546110b7919061278f565b92505081905550505050806110cb906128fe565b9050610ed5565b508473ffffffffffffffffffffffffffffffffffffffff168673ffffffffffffffffffffffffffffffffffffffff168273ffffffffffffffffffffffffffffffffffffffff167f4a39dc06d4c0dbc64b70af90fd698a233a518aa5d07e595d983b8c0526c8f7fb8787604051611149929190612418565b60405180910390a461115f81878787878761164f565b505050505050565b60008060009054906101000a900473ffffffffffffffffffffffffffffffffffffffff169050816000806101000a81548173ffffffffffffffffffffffffffffffffffffffff021916908373ffffffffffffffffffffffffffffffffffffffff1602179055508173ffffffffffffffffffffffffffffffffffffffff168173ffffffffffffffffffffffffffffffffffffffff167f8be0079c531659141344cd1fd0a4f28419497f9722a3daafe3b4186f6b6457e060405160405180910390a35050565b600073ffffffffffffffffffffffffffffffffffffffff168473ffffffffffffffffffffffffffffffffffffffff16141561129b576040517f08c379a00000000000000000000000000000000000000000000000000000000081526004016112929061260c565b60405180910390fd5b60006112a5610dfc565b90506112c6816000876112b788611836565b6112c088611836565b87611647565b826001600086815260200190815260200160002060008773ffffffffffffffffffffffffffffffffffffffff1673ffffffffffffffffffffffffffffffffffffffff1681526020019081526020016000206000828254611326919061278f565b925050819055508473ffffffffffffffffffffffffffffffffffffffff16600073ffffffffffffffffffffffffffffffffffffffff168273ffffffffffffffffffffffffffffffffffffffff167fc3d58168c5ae7397731d063d5bbf3d657854427343f4c083240f7aacaa2d0f6287876040516113a4929190612647565b60405180910390a46113bb816000878787876118fc565b5050505050565b600073ffffffffffffffffffffffffffffffffffffffff168473ffffffffffffffffffffffffffffffffffffffff161415611432576040517f08c379a00000000000000000000000000000000000000000000000000000000081526004016114299061252c565b60405180910390fd5b600061143c610dfc565b905061145c81878761144d88611836565b61145688611836565b87611647565b60006001600086815260200190815260200160002060008873ffffffffffffffffffffffffffffffffffffffff1673ffffffffffffffffffffffffffffffffffffffff168152602001908152602001600020549050838110156114f4576040517f08c379a00000000000000000000000000000000000000000000000000000000081526004016114eb9061256c565b60405180910390fd5b8381036001600087815260200190815260200160002060008973ffffffffffffffffffffffffffffffffffffffff1673ffffffffffffffffffffffffffffffffffffffff16815260200190815260200160002081905550836001600087815260200190815260200160002060008873ffffffffffffffffffffffffffffffffffffffff1673ffffffffffffffffffffffffffffffffffffffff16815260200190815260200160002060008282546115ab919061278f565b925050819055508573ffffffffffffffffffffffffffffffffffffffff168773ffffffffffffffffffffffffffffffffffffffff168373ffffffffffffffffffffffffffffffffffffffff167fc3d58168c5ae7397731d063d5bbf3d657854427343f4c083240f7aacaa2d0f628888604051611628929190612647565b60405180910390a461163e8288888888886118fc565b50505050505050565b505050505050565b61166e8473ffffffffffffffffffffffffffffffffffffffff16611ae3565b1561182e578373ffffffffffffffffffffffffffffffffffffffff1663bc197c8187878686866040518663ffffffff1660e01b81526004016116b495949392919061230b565b602060405180830381600087803b1580156116ce57600080fd5b505af19250505080156116ff57506040513d601f19601f820116820180604052508101906116fc9190611fb3565b60015b6117a55761170b6129d4565b806308c379a014156117685750611720612df1565b8061172b575061176a565b806040517f08c379a000000000000000000000000000000000000000000000000000000000815260040161175f919061246a565b60405180910390fd5b505b6040517f08c379a000000000000000000000000000000000000000000000000000000000815260040161179c9061248c565b60405180910390fd5b63bc197c8160e01b7bffffffffffffffffffffffffffffffffffffffffffffffffffffffff1916817bffffffffffffffffffffffffffffffffffffffffffffffffffffffff19161461182c576040517f08c379a0000000000000000000000000000000000000000000000000000000008152600401611823906124ac565b60405180910390fd5b505b505050505050565b60606000600167ffffffffffffffff81111561187b577f4e487b7100000000000000000000000000000000000000000000000000000000600052604160045260246000fd5b6040519080825280602002602001820160405280156118a95781602001602082028036833780820191505090505b50905082816000815181106118e7577f4e487b7100000000000000000000000000000000000000000000000000000000600052603260045260246000fd5b60200260200101818152505080915050919050565b61191b8473ffffffffffffffffffffffffffffffffffffffff16611ae3565b15611adb578373ffffffffffffffffffffffffffffffffffffffff1663f23a6e6187878686866040518663ffffffff1660e01b8152600401611961959493929190612373565b602060405180830381600087803b15801561197b57600080fd5b505af19250505080156119ac57506040513d601f19601f820116820180604052508101906119a99190611fb3565b60015b611a52576119b86129d4565b806308c379a01415611a1557506119cd612df1565b806119d85750611a17565b806040517f08c379a0000000000000000000000000000000000000000000000000000000008152600401611a0c919061246a565b60405180910390fd5b505b6040517f08c379a0000000000000000000000000000000000000000000000000000000008152600401611a499061248c565b60405180910390fd5b63f23a6e6160e01b7bffffffffffffffffffffffffffffffffffffffffffffffffffffffff1916817bffffffffffffffffffffffffffffffffffffffffffffffffffffffff191614611ad9576040517f08c379a0000000000000000000000000000000000000000000000000000000008152600401611ad0906124ac565b60405180910390fd5b505b505050505050565b600080823b905060008111915050919050565b6000611b09611b0484612695565b612670565b90508083825260208201905082856020860282011115611b2857600080fd5b60005b85811015611b585781611b3e8882611c0c565b845260208401935060208301925050600181019050611b2b565b5050509392505050565b6000611b75611b70846126c1565b612670565b90508083825260208201905082856020860282011115611b9457600080fd5b60005b85811015611bc45781611baa8882611cde565b845260208401935060208301925050600181019050611b97565b5050509392505050565b6000611be1611bdc846126ed565b612670565b905082815260208101848484011115611bf957600080fd5b611c04848285612859565b509392505050565b600081359050611c1b81612e87565b92915050565b600082601f830112611c3257600080fd5b8135611c42848260208601611af6565b91505092915050565b600082601f830112611c5c57600080fd5b8135611c6c848260208601611b62565b91505092915050565b600081359050611c8481612e9e565b92915050565b600081359050611c9981612eb5565b92915050565b600081519050611cae81612eb5565b92915050565b600082601f830112611cc557600080fd5b8135611cd5848260208601611bce565b91505092915050565b600081359050611ced81612ecc565b92915050565b600060208284031215611d0557600080fd5b6000611d1384828501611c0c565b91505092915050565b60008060408385031215611d2f57600080fd5b6000611d3d85828601611c0c565b9250506020611d4e85828601611c0c565b9150509250929050565b600080600080600060a08688031215611d7057600080fd5b6000611d7e88828901611c0c565b9550506020611d8f88828901611c0c565b945050604086013567ffffffffffffffff811115611dac57600080fd5b611db888828901611c4b565b935050606086013567ffffffffffffffff811115611dd557600080fd5b611de188828901611c4b565b925050608086013567ffffffffffffffff811115611dfe57600080fd5b611e0a88828901611cb4565b9150509295509295909350565b600080600080600060a08688031215611e2f57600080fd5b6000611e3d88828901611c0c565b9550506020611e4e88828901611c0c565b9450506040611e5f88828901611cde565b9350506060611e7088828901611cde565b925050608086013567ffffffffffffffff811115611e8d57600080fd5b611e9988828901611cb4565b9150509295509295909350565b60008060408385031215611eb957600080fd5b6000611ec785828601611c0c565b9250506020611ed885828601611c75565b9150509250929050565b60008060408385031215611ef557600080fd5b6000611f0385828601611c0c565b9250506020611f1485828601611cde565b9150509250929050565b60008060408385031215611f3157600080fd5b600083013567ffffffffffffffff811115611f4b57600080fd5b611f5785828601611c21565b925050602083013567ffffffffffffffff811115611f7457600080fd5b611f8085828601611c4b565b9150509250929050565b600060208284031215611f9c57600080fd5b6000611faa84828501611c8a565b91505092915050565b600060208284031215611fc557600080fd5b6000611fd384828501611c9f565b91505092915050565b600060208284031215611fee57600080fd5b6000611ffc84828501611cde565b91505092915050565b600061201183836122d2565b60208301905092915050565b612026816127e5565b82525050565b60006120378261272e565b612041818561275c565b935061204c8361271e565b8060005b8381101561207d5781516120648882612005565b975061206f8361274f565b925050600181019050612050565b5085935050505092915050565b612093816127f7565b82525050565b60006120a482612739565b6120ae818561276d565b93506120be818560208601612868565b6120c7816129f6565b840191505092915050565b60006120dd82612744565b6120e7818561277e565b93506120f7818560208601612868565b612100816129f6565b840191505092915050565b600061211860348361277e565b915061212382612a14565b604082019050919050565b600061213b60288361277e565b915061214682612a63565b604082019050919050565b600061215e602b8361277e565b915061216982612ab2565b604082019050919050565b600061218160268361277e565b915061218c82612b01565b604082019050919050565b60006121a460298361277e565b91506121af82612b50565b604082019050919050565b60006121c760258361277e565b91506121d282612b9f565b604082019050919050565b60006121ea60328361277e565b91506121f582612bee565b604082019050919050565b600061220d602a8361277e565b915061221882612c3d565b604082019050919050565b600061223060208361277e565b915061223b82612c8c565b602082019050919050565b600061225360298361277e565b915061225e82612cb5565b604082019050919050565b600061227660298361277e565b915061228182612d04565b604082019050919050565b600061229960288361277e565b91506122a482612d53565b604082019050919050565b60006122bc60218361277e565b91506122c782612da2565b604082019050919050565b6122db8161284f565b82525050565b6122ea8161284f565b82525050565b6000602082019050612305600083018461201d565b92915050565b600060a082019050612320600083018861201d565b61232d602083018761201d565b818103604083015261233f818661202c565b90508181036060830152612353818561202c565b905081810360808301526123678184612099565b90509695505050505050565b600060a082019050612388600083018861201d565b612395602083018761201d565b6123a260408301866122e1565b6123af60608301856122e1565b81810360808301526123c18184612099565b90509695505050505050565b60006040820190506123e2600083018561201d565b6123ef60208301846122e1565b9392505050565b60006020820190508181036000830152612410818461202c565b905092915050565b60006040820190508181036000830152612432818561202c565b90508181036020830152612446818461202c565b90509392505050565b6000602082019050612464600083018461208a565b92915050565b6000602082019050818103600083015261248481846120d2565b905092915050565b600060208201905081810360008301526124a58161210b565b9050919050565b600060208201905081810360008301526124c58161212e565b9050919050565b600060208201905081810360008301526124e581612151565b9050919050565b6000602082019050818103600083015261250581612174565b9050919050565b6000602082019050818103600083015261252581612197565b9050919050565b60006020820190508181036000830152612545816121ba565b9050919050565b60006020820190508181036000830152612565816121dd565b9050919050565b6000602082019050818103600083015261258581612200565b9050919050565b600060208201905081810360008301526125a581612223565b9050919050565b600060208201905081810360008301526125c581612246565b9050919050565b600060208201905081810360008301526125e581612269565b9050919050565b600060208201905081810360008301526126058161228c565b9050919050565b60006020820190508181036000830152612625816122af565b9050919050565b600060208201905061264160008301846122e1565b92915050565b600060408201905061265c60008301856122e1565b61266960208301846122e1565b9392505050565b600061267a61268b565b905061268682826128cd565b919050565b6000604051905090565b600067ffffffffffffffff8211156126b0576126af6129a5565b5b602082029050602081019050919050565b600067ffffffffffffffff8211156126dc576126db6129a5565b5b602082029050602081019050919050565b600067ffffffffffffffff821115612708576127076129a5565b5b612711826129f6565b9050602081019050919050565b6000819050602082019050919050565b600081519050919050565b600081519050919050565b600081519050919050565b6000602082019050919050565b600082825260208201905092915050565b600082825260208201905092915050565b600082825260208201905092915050565b600061279a8261284f565b91506127a58361284f565b9250827fffffffffffffffffffffffffffffffffffffffffffffffffffffffffffffffff038211156127da576127d9612947565b5b828201905092915050565b60006127f08261282f565b9050919050565b60008115159050919050565b60007fffffffff0000000000000000000000000000000000000000000000000000000082169050919050565b600073ffffffffffffffffffffffffffffffffffffffff82169050919050565b6000819050919050565b82818337600083830152505050565b60005b8381101561288657808201518184015260208101905061286b565b83811115612895576000848401525b50505050565b600060028204905060018216806128b357607f821691505b602082108114156128c7576128c6612976565b5b50919050565b6128d6826129f6565b810181811067ffffffffffffffff821117156128f5576128f46129a5565b5b80604052505050565b60006129098261284f565b91507fffffffffffffffffffffffffffffffffffffffffffffffffffffffffffffffff82141561293c5761293b612947565b5b600182019050919050565b7f4e487b7100000000000000000000000000000000000000000000000000000000600052601160045260246000fd5b7f4e487b7100000000000000000000000000000000000000000000000000000000600052602260045260246000fd5b7f4e487b7100000000000000000000000000000000000000000000000000000000600052604160045260246000fd5b600060033d11156129f35760046000803e6129f0600051612a07565b90505b90565b6000601f19601f8301169050919050565b60008160e01c9050919050565b7f455243313135353a207472616e7366657220746f206e6f6e204552433131353560008201527f526563656976657220696d706c656d656e746572000000000000000000000000602082015250565b7f455243313135353a204552433131353552656365697665722072656a6563746560008201527f6420746f6b656e73000000000000000000000000000000000000000000000000602082015250565b7f455243313135353a2062616c616e636520717565727920666f7220746865207a60008201527f65726f2061646472657373000000000000000000000000000000000000000000602082015250565b7f4f776e61626c653a206e6577206f776e657220697320746865207a65726f206160008201527f6464726573730000000000000000000000000000000000000000000000000000602082015250565b7f455243313135353a2063616c6c6572206973206e6f74206f776e6572206e6f7260008201527f20617070726f7665640000000000000000000000000000000000000000000000602082015250565b7f455243313135353a207472616e7366657220746f20746865207a65726f20616460008201527f6472657373000000000000000000000000000000000000000000000000000000602082015250565b7f455243313135353a207472616e736665722063616c6c6572206973206e6f742060008201527f6f776e6572206e6f7220617070726f7665640000000000000000000000000000602082015250565b7f455243313135353a20696e73756666696369656e742062616c616e636520666f60008201527f72207472616e7366657200000000000000000000000000000000000000000000602082015250565b7f4f776e61626c653a2063616c6c6572206973206e6f7420746865206f776e6572600082015250565b7f455243313135353a2073657474696e6720617070726f76616c2073746174757360008201527f20666f722073656c660000000000000000000000000000000000000000000000602082015250565b7f455243313135353a206163636f756e747320616e6420696473206c656e67746860008201527f206d69736d617463680000000000000000000000000000000000000000000000602082015250565b7f455243313135353a2069647320616e6420616d6f756e7473206c656e6774682060008201527f6d69736d61746368000000000000000000000000000000000000000000000000602082015250565b7f455243313135353a206d696e7420746f20746865207a65726f2061646472657360008201527f7300000000000000000000000000000000000000000000000000000000000000602082015250565b600060443d1015612e0157612e84565b612e0961268b565b60043d036004823e80513d602482011167ffffffffffffffff82111715612e31575050612e84565b808201805167ffffffffffffffff811115612e4f5750505050612e84565b80602083010160043d038501811115612e6c575050505050612e84565b612e7b826020018501866128cd565b82955050505050505b90565b612e90816127e5565b8114612e9b57600080fd5b50565b612ea7816127f7565b8114612eb257600080fd5b50565b612ebe81612803565b8114612ec957600080fd5b50565b612ed58161284f565b8114612ee057600080fd5b5056fea264697066735822122018a2deef806b71097d993f0cd769ed2b41da46f295005e13d5b3c2b515b3a72664736f6c6343000804003368747470733a2f2f676174657761792e70696e6174612e636c6f75642f697066732f516d616b3753516d55726839756a63424c753644644a77595537577479703167783637697548465234776f4a376f",
  "devdoc": {
    "kind": "dev",
    "methods": {
      "balanceOf(address,uint256)": {
        "details": "See {IERC1155-balanceOf}. Requirements: - `account` cannot be the zero address."
      },
      "balanceOfBatch(address[],uint256[])": {
        "details": "See {IERC1155-balanceOfBatch}. Requirements: - `accounts` and `ids` must have the same length."
      },
      "isApprovedForAll(address,address)": {
        "details": "See {IERC1155-isApprovedForAll}."
      },
      "owner()": {
        "details": "Returns the address of the current owner."
      },
      "renounceOwnership()": {
        "details": "Leaves the contract without owner. It will not be possible to call `onlyOwner` functions anymore. Can only be called by the current owner. NOTE: Renouncing ownership will leave the contract without an owner, thereby removing any functionality that is only available to the owner."
      },
      "safeBatchTransferFrom(address,address,uint256[],uint256[],bytes)": {
        "details": "See {IERC1155-safeBatchTransferFrom}."
      },
      "safeTransferFrom(address,address,uint256,uint256,bytes)": {
        "details": "See {IERC1155-safeTransferFrom}."
      },
      "setApprovalForAll(address,bool)": {
        "details": "See {IERC1155-setApprovalForAll}."
      },
      "supportsInterface(bytes4)": {
        "details": "See {IERC165-supportsInterface}."
      },
      "transferOwnership(address)": {
        "details": "Transfers ownership of the contract to a new account (`newOwner`). Can only be called by the current owner."
      },
      "uri(uint256)": {
        "details": "See {IERC1155MetadataURI-uri}. This implementation returns the same URI for *all* token types. It relies on the token type ID substitution mechanism https://eips.ethereum.org/EIPS/eip-1155#metadata[defined in the EIP]. Clients calling this function must replace the `\\{id\\}` substring with the actual token type ID."
      }
    },
    "version": 1
  },
  "userdoc": {
    "kind": "user",
    "methods": {},
    "version": 1
  },
  "storageLayout": {
    "storage": [
      {
        "astId": 7,
        "contract": "contracts/B.sol:B",
        "label": "_owner",
        "offset": 0,
        "slot": "0",
        "type": "t_address"
      },
      {
        "astId": 129,
        "contract": "contracts/B.sol:B",
        "label": "_balances",
        "offset": 0,
        "slot": "1",
        "type": "t_mapping(t_uint256,t_mapping(t_address,t_uint256))"
      },
      {
        "astId": 135,
        "contract": "contracts/B.sol:B",
        "label": "_operatorApprovals",
        "offset": 0,
        "slot": "2",
        "type": "t_mapping(t_address,t_mapping(t_address,t_bool))"
      },
      {
        "astId": 137,
        "contract": "contracts/B.sol:B",
        "label": "_uri",
        "offset": 0,
        "slot": "3",
        "type": "t_string_storage"
      },
      {
        "astId": 2253,
        "contract": "contracts/B.sol:B",
        "label": "BlockBananaAddress",
        "offset": 0,
        "slot": "4",
        "type": "t_address"
      },
      {
        "astId": 2259,
        "contract": "contracts/B.sol:B",
        "label": "BlockBananaContract",
        "offset": 0,
        "slot": "5",
        "type": "t_contract(BlockBananaInterface)2246"
      },
      {
        "astId": 2268,
        "contract": "contracts/B.sol:B",
        "label": "_name",
        "offset": 0,
        "slot": "6",
        "type": "t_string_storage"
      },
      {
        "astId": 2271,
        "contract": "contracts/B.sol:B",
        "label": "_symbol",
        "offset": 0,
        "slot": "7",
        "type": "t_string_storage"
      }
    ],
    "types": {
      "t_address": {
        "encoding": "inplace",
        "label": "address",
        "numberOfBytes": "20"
      },
      "t_bool": {
        "encoding": "inplace",
        "label": "bool",
        "numberOfBytes": "1"
      },
      "t_contract(BlockBananaInterface)2246": {
        "encoding": "inplace",
        "label": "contract BlockBananaInterface",
        "numberOfBytes": "20"
      },
      "t_mapping(t_address,t_bool)": {
        "encoding": "mapping",
        "key": "t_address",
        "label": "mapping(address => bool)",
        "numberOfBytes": "32",
        "value": "t_bool"
      },
      "t_mapping(t_address,t_mapping(t_address,t_bool))": {
        "encoding": "mapping",
        "key": "t_address",
        "label": "mapping(address => mapping(address => bool))",
        "numberOfBytes": "32",
        "value": "t_mapping(t_address,t_bool)"
      },
      "t_mapping(t_address,t_uint256)": {
        "encoding": "mapping",
        "key": "t_address",
        "label": "mapping(address => uint256)",
        "numberOfBytes": "32",
        "value": "t_uint256"
      },
      "t_mapping(t_uint256,t_mapping(t_address,t_uint256))": {
        "encoding": "mapping",
        "key": "t_uint256",
        "label": "mapping(uint256 => mapping(address => uint256))",
        "numberOfBytes": "32",
        "value": "t_mapping(t_address,t_uint256)"
      },
      "t_string_storage": {
        "encoding": "bytes",
        "label": "string",
        "numberOfBytes": "32"
      },
      "t_uint256": {
        "encoding": "inplace",
        "label": "uint256",
        "numberOfBytes": "32"
      }
    }
  }
}